:040000006F00C07657
:100004000000000000000000900000208C0200208E
:10001400A9BDF9F5900000200000000000000000D8
:10002400900000209000002000000000000000006C
:10003400900000200000000090000020000000005C
:1000440090000020900000209000002090000020EC
:10005400900000209000002090000020000000008C
:1000640090000020900000209000002090000020CC
:1000740090000020900000209000002090000020BC
:1000840090000020900000209000002090000020AC
:1000940001A0011113078008F337078093F787083D
:1000A4003EC201000100B71700409305700523808C
:1000B400B704130680FA2380C7040100010083C635
:1000C400B70493F6F60DA385D7042380070492465C
:1000D400F3A606800100010093760502D5CEF3361F
:1000E400078093F6860836C4010001002380B70414
:1000F4002380C70401000100B70614007D89558DD3
:1001040088C7010001000100010023800704A24602
:10011400F3A6068001000100733707801377870870
:100124003AC6010001002380B7042380C7040100FC
:100134000100010001003727004093061005A303C6
:10014400D78023800704B247F3A70780010001008A
:1001540093078008F3B7078093F787083ECE010022
:100164000100B7170040130770052380E704130745
:1001740080FA2380E7040100010003C7B704136772
:100184000708A385E70423800704F247F3A7078041
:10019400010001000561828093760504BDC6F33633
:1001A400078093F6860836C8010001002380B7044F
:1001B4002380C70401000100B706140093860604D7
:1001C4007D89558D88C7010001000100010023804D
:1001D4000704C246F3A606800100010073370780B6
:1001E400137787083ACA010001002380B7042380EB
:1001F400C704010001003727004093062005A3032C
:10020400D78023800704D24781B7733707801377D9
:1002140087083ACC010001002380B7042380C70477
:100224000100010098471367070C98C7238007044F
:10023400E24719BF0111814601468145114506CEA9
:100244007D2A93078008F3B7078093F787083EC693
:1002540001000100B7170040130770052380E7046D
:10026400130780FA2380E7040100010003C7670431
:10027400136717002383E70423800704B247F3A717
:10028400078001000100F24005618280411181462E
:10029400014681451145A52213078008F3370780DD
:1002A40093F787083EC401000100B7170040130606
:1002B40070052380C704930680FA2380D7040100C5
:1002C4000100FD552396B70223800704A245F3A538
:1002D40005800100010073370780137787083AC649
:1002E400010001002380C7042380D704010001001A
:1002F40003C76704136717002383E70423800704F5
:10030400B247F3A707800100010001A0BD473305F0
:10031400F50201007D1575FD8280411122C426C2BB
:1003240006C6AA84014463179400B240224492444E
:100334004101828005041305803E4204C13F41808F
:10034400DDB72303048015472303E480010023025F
:10035400A480828083076480E3CE07FE23030480A5
:10036400828083076480E3CE07FE03454480828055
:1003740083076480E3CE07FE2302A48082804111B8
:1003840026C44AC24EC006C61377F50BAD47AA89E8
:100394002E8995446306F70019456537653F8D44FA
:1003A4004E854537FD59FD1463983401B240A2448B
:1003B4001249824941018280135509011375F50FD1
:1003C400453F2209CDB7011126CC06CEB70408005B
:1003D40051371545BD37713769372AC6A53F3245B0
:1003E4009377150089EB136515001375F50FF2402B
:1003F400E24405618280FD14E9FC0145CDBF3971F9
:1004040026DC4ADA4ED852D656D45AD25ED006DE0C
:1004140062CE66CCB7E700E07D5783AA070022C608
:1004240003AA470023A0E71823A2E718B717004040
:10043400130770052380E704130780FA2380E70479
:1004440083C74704930B75FFB684E20793FBFB0F46
:100454008546AA892E8B328937240040E1870157CB
:1004640063FA76016308D500894613070002631313
:10047400D5000157D98F93F7F70FB71C004023829B
:10048400FC0411472303E4801305F00F5D3D094C80
:10049400D135636D7C11B7050700DA9537870700FE
:1004A400795563F2E504B3879500636EF702370B61
:1004B4000800A94733EB65016399F90689E481448F
:1004C400513D26850DA0DA850945553D05090345AD
:1004D400F9FFFD14050B693D81C49377FB0FFDF70C
:1004E400DD3569FD7D55B71700401307700523807E
:1004F400E704130780FA2380E70403C74704418B0A
:100504002382E704F250B7E700E023A0571123A2A7
:100514004711E25432445259C259325AA25A125B18
:10052400825B724CE24C21618280A5476395F90697
:1005340085691309F00FB3069900B3742B01B694BF
:100544001349F9FFB3749900856B33796901416BE1
:100554009387F9FFB3F7270199E363FC340193D937
:100564004900C147E3E637FF99BF0569C1697D19B1
:10057400D9B71305800D63886901130500026384EC
:10058400790113051008CA85DD3B353D21DD4E99FF
:10059400B3843441D9B7DA852D45D533CA94E30001
:1005A40099F205097D3BA30FA9FED5BF9387F9FFF7
:1005B40093F7F70F6361FC0C83C71C04130730081F
:1005C400631FF70437070800636BEB04B3079B0052
:1005D400B706100063F5D704334BEB0089476393E8
:1005E400F9068980D549E38C04ECDA850945413B59
:1005F40011090327C9FF91472320E480030764807E
:10060400E34E07FE23033481FD17EDFBFD14110BAC
:1006140081C49377FB0FE9FF7D3371F5E1B5B7171B
:10062400004003C75704B70708001377070219E30C
:10063400B78707007955E378FBEA33079B00E3FFAC
:10064400E7F855B58547E382F9F2DA852D45053B90
:100654009389F4FFE38504E6293393F7390091EB9A
:10066400832604800327090093074900E39AE6E4FC
:100674003E89CE84F1BFB5476396F9001305900B0C
:10068400C93135BDB1471305B00AE38BF9FE99476B
:100694006391F904B7050800B365BB002D45C53166
:1006A40081448D4BA1497539639674018327048075
:1006B4002320F9008504E39834FF8327048013176B
:1006C4002B01635507002312F900D5BB2322F9003F
:1006D400FDB39D476399F90281451305B004453183
:1006E400BD442320090023220900FD599D3993F7B5
:1006F4007400CA9703C70700FD14398D2380A7002F
:10070400E39634FF6DBBA1476392F9046D398144CC
:10071400630D0B008D479304C0036308FB0093042F
:10072400000563048B01930440041375C507E308B3
:1007340095D81945393139390545213126850D3981
:1007440009453D314931E31C05D669BB914763999D
:10075400F90013056006F536F53E130590090DB74B
:08076400E38F09D4F154A9BB95
:10076C00971100209381C180176100201301C108EB
:10077C001305400097050020938505881706002077
:10078C00130606FE63FAC5008322050023A055005C
:10079C0011059105E3EAC5FE171500001305058543
:1007AC00970500209385C5FB17060020130646FC11
:1007BC0063FAC5008322050023A05500110591059D
:1007CC00E3EAC5FE17050020130585FA93854186DB
:1007DC006377B500232005001105E36DB5FEFD42DE
:1007EC00739002BC8D427390428093028008739088
:1007FC000230970200209382228093E232007390A1
:10080C005230970200009382E212739012347300FC
:10081C0020303367B500FD530D8B79E7B7877F7FA9
:10082C009387F7F710419441B372F6003363F600E7
:10083C00BE92B3E262006397720C6318D606504105
:10084C00D441B372F6003363F600BE92B3E2620099
:10085C006398720A631BD60410459445B372F60074
:10086C003363F600BE92B3E262006391720A631EB8
:10087C00D6025045D445B372F6003363F600BE92EF
:10088C00B3E26200639A72086311D602104994496C
:10089C00B372F6003363F600BE92B3E26200639368
:1008AC0072085105D105E30FD6F61317060193977D
:1008BC000601631CF7001357060193D70601330595
:1008CC00F7409375F50F91E982804183C18333051D
:1008DC00F7409375F50F91E182801377F70F93F73B
:1008EC00F70F3305F74082800346050083C60500E9
:1008FC00050585056313D60065FA3305D64082805D
:10090C0011059105E312D6FE014582802105A10552
:10091C00E31CD6FC014582803105B105E316D6FCFB
:10092C00014582804105C105E310D6FC014582805A
:10093C0041111305800406C697F0FF1FE780E07491
:10094C00914513050008AD239145130500048D2333
:10095C0041459145B12B17050020130565E0952CF9
:10096C0001A0B717004003A7870C1367070823A43F
:10097C00E70C0100010003A7C70C1367070823A6A7
:10098C00E70C8280B717004003A7870C1367070496
:10099C0023A4E70C0100010003A7C70C136707048D
:1009AC0023A6E70C8280B717004003A7870C1367B8
:1009BC00070123A4E70C0100010003A7C70C136770
:1009CC00070123A6E70C8280B717004003A7870C0A
:1009DC001367070823A4E70C0100010001000100C4
:1009EC00010001000100010003A7C70C13670708F1
:1009FC0023A6E70C8280B717004003A7870C136768
:100A0C00070423A4E70C0100010001000100010010
:100A1C0001000100010003A7C70C1367070423A6FC
:100A2C00E70C8280B717004003A7870C13670701F8
:100A3C0023A4E70C010001000100010001000100EA
:100A4C000100010003A7C70C1367070123A6E70CDD
:100A5C00828001114AC84EC652C406CE22CC26CA88
:100A6C002A8A01498D49B3072A0183C4070021440E
:100A7C0093978401E18763D50702B9377D14860407
:100A8C001374F40F93F4F40F65F40509E31D39FDA9
:100A9C00F2406244D2444249B249224A0561828002
:100AAC00C935E9BF01114AC84EC652C406CE22CC84
:100ABC0026CA2A8A01498D49B3072A0183C4070033
:100ACC00214493978401E18763D507022D377D1468
:100ADC0086041374F40F93F4F40F65F40509E31D05
:100AEC0039FDF2406244D2444249B249224A05617E
:100AFC008280493DE9BF01114AC84EC652C406CE98
:100B0C0022CC26CA2A8A01498D49B3072A0183C4FB
:100B1C000700214493978401E18763D507021937B5
:100B2C007D1486041374F40F93F4F40F65F4050923
:100B3C00E31D39FDF2406244D2444249B249224A93
:100B4C00056182808D35E9BF411106C622C42A8415
:100B5C00093713053400F53D13056400DD3D3717E7
:100B6C0000408327C70CB240224493E70708232692
:100B7C00F70C41018280411106C622C42A841D371C
:100B8C0013053400053713056400293F371700405F
:100B9C008327C70CB240224493E707042326F70CA3
:100BAC0041018280411106C622C42A84A93713054B
:100BBC0034009137130564003D3F371700408327FD
:100BCC00C70CB240224493E707012326F70C4101DE
:100BDC008280797122D426D24AD04ECE56CA5AC8B7
:100BEC005EC662C4AA8406D652CCB526B547B34AB3
:100BFC00F5021384C1831389C180970B0020938B5A
:100C0C002BB7294B93894181138C8180B38AFA02CB
:100C1C00A69A63949A02B250225423A6018023AA66
:100C2C00018023A8018092540259F249624AD24AA7
:100C3C00424BB24B224C456182801146A6852285DF
:100C4C0025260D469385440013055400A302040089
:100C5C00212E0D46938574001305A400A3040400F3
:100C6C0021260D469385A4001305F40023070400E8
:100C7C00E52C8327090083A60B00A3090400014679
:100C8C00B68585063307D40003074700631D071E8E
:100C9C0019C623A6F1809707002023ABB7AC83A716
:100CAC00090083260C000146B68585063307D4005F
:100CBC00030797006310071E09C623AAF18023A41B
:100CCC00B180138A0181170700201307A7AA832775
:100CDC000A0014430146B68585063307D400030782
:100CEC00E7006310071C19C623A8F18097070020A2
:100CFC0023A2B7A897050000938585292285113E6C
:100D0C0005E18327090013858181238CF18083A75A
:100D1C000900A38CF18083270A00238DF1802D35E7
:100D2C0097050000938545272285E53405E1832747
:100D3C00090013858181A38DF18083A70900238E7F
:100D4C00F18083270A00A38EF180FD3B97050000FC
:100D5C00938505252285753C05E1832709001385BC
:100D6C008181238FF18083A70900A38FF1808327D2
:100D7C000A002380F182C93B970500009385C522A8
:100D8C002285413C05E1832709001385418223829A
:100D9C00F18283A70900A382F18283270A002383AF
:100DAC00F182D13B970500009385852022859534EF
:100DBC0005E18327090013854182A383F18283A770
:100DCC0009002384F18283270A00A384F18265330E
:100DDC00970500009385451E2285253C05E1832758
:100DEC000900138541822385F18283A70900A3851D
:100DFC00F18283270A002386F182B53B9705000018
:100E0C009385051C2285313405E183270900138560
:100E1C0001832388F18283A70900A388F1828327A9
:100E2C000A002389F182BD3B970500009385C51903
:100E3C002285C53205E18327090013850183A38927
:100E4C00F18283A70900238AF18283270A00A38AEF
:100E5C00F182893B97050000938585172285553AC9
:100E6C0005E18327090013850183238BF18283A776
:100E7C000900A38BF18283270A00238CF1821D3396
:100E8C005104B50479B3B3876703130707FD05460F
:100E9C00BA97FDB3B3876703130707FD0546BA97E7
:100EAC0021B5B3876703130707FD0546BA9725B528
:100EBC00914763EEB702170700001307E7118A0585
:100ECC00BA959C41BA978287B717004003A7470D84
:100EDC001345F5FF698F23AAE70C03A7070D698F4C
:100EEC0023A8E70C03A7070C798D23A0A70C8280FD
:100EFC00B717004083A6470D1347F5FFF98E23AAB9
:100F0C00D70C83A6070D558D23A8A70C83A6070C19
:100F1C00758F23A0E70C8280B717004003A7470DFD
:100F2C00498F23AAE70C03A7070D1345F5FF45BF0F
:100F3C00B717004083A6470D1347F5FF758F23AAFB
:100F4C00E70C03A7070C598D4DB7B717004003A743
:100F5C00470D498FEDB7AA87850703C7F7FF6DFFCC
:100F6C003385A7407D158280AA8709CA850503C7EA
:100F7C00F5FF85077D16A38FE7FE65FB3E96639311
:100F8C00C70082808507A38F07FED5BF3031303173
:100F9C0000000000303130320000000030313033BE
:100FAC0000000000303230310000000030323032AE
:100FBC00000000003032303300000000303330319C
:100FCC00000000003033303200000000303330338A
:100FDC0000000000F4FEFFFF1CFFFFFF44FFFFFFBB
:080FEC005CFFFFFF76FFFFFF31
:100FF4003031303332353532353532353500000055
:00000001FF
